:100000007530C07531F97532A47533B07534997592
:1000100035927536827537F87538807539B0753A0E
:1000200088753B83753CC6753DA1753E86753F8ED0
:100030007590FFD2A7C2A4C2A6C2A5C2A2C2A1C285
:10004000A0117CD2A4117CD2A6117CC2A4C2A6208D
:10005000A7FD30A7FDD2A5117CE590C2A511618056
:10006000E2F9FA5301F053020FE9C4F928F8E6F572
:10007000B07830EA28F8E6F580F5B0227DFF7EFF03
:05008000DEFEDDFA22A6
:00000001FF
